:100000000C9463000C948B000C948B000C94ED000A
:100010000C94FC000C940B010C948B000C948B0042
:100020000C948B000C948B000C948B000C948B0024
:100030000C948B000C94AD010C948B000C948B00F1
:100040000C9430050C948B000C94D5010C94230275
:100050000C948B000C948B000C948B000C948B00F4
:100060000C948B000C948B000000000024002700EF
:100070002A0000000000250028002B0000000000DE
:1000800023002600290004040404040404040202DA
:100090000202020203030303030301020408102007
:1000A0004080010204081020010204081020000012
:1000B0000007000201000003040600000000000029
:1000C00000001A018F0311241FBECFEFD8E0DEBF5E
:1000D000CDBF11E0A0E0B1E0E8EEFFE002C0059086
:1000E0000D92A435B107D9F712E0A4E5B1E001C043
:1000F0001D92A131B107E1F710E0C6ECD0E004C0D9
:100100002297FE010E94EE07C23CD107C9F70E9468
:1001100021050C94F2070C940000CF93DF93482F35
:10012000883028F4EDE6F0E0CDE6D0E00EC08E3069
:1001300028F4EBE6F0E0CBE6D0E007C0863108F427
:1001400047C0E0E0F0E0C0E0D0E05081483068F423
:1001500081E090E0A0E0B0E0042E04C0880F991F79
:10016000AA1FBB1F0A94D2F714C0242F30E04E30D0
:1001700018F42850304002C02E50304081E090E00A
:10018000A0E0B0E004C0880F991FAA1FBB1F2A95EA
:10019000D2F7852B88839BB3483010F484E005C0E8
:1001A0004E3010F481E001C082E0892B8BBB90912E
:1001B0006800483010F484E005C04E3010F481E04F
:1001C00001C082E0892B80936800DF91CF91089570
:1001D000ECE6F0E0CCE6D0E0B8CF1F920F920FB67D
:1001E0000F9211248F9381E4809354018F910F908B
:1001F0000FBE0F901F9018951F920F920FB60F927F
:1002000011248F9382E4809354018F910F900FBE3D
:100210000F901F9018951F920F920FB60F921124F6
:100220008F9383E4809354018F910F900FBE0F90B2
:100230001F90189580915501909156019093580107
:10024000809357010895809154018823C1F08EE076
:100250000E943007892B99F410925401809141013A
:1002600090914201909581959F4F90934201809388
:1002700041018FEF9FEF9093580180935701209198
:1002800055013091560180915701909158012817DE
:10029000390799F13093580120935701809141011A
:1002A00090914201820F931F9093560180935501C4
:1002B0001816190624F010925601109255018091DB
:1002C0005501909156018F3F910534F08FEF90E0EA
:1002D000909356018093550160915501709156019C
:1002E0008BE00E943D06609155017091560186EEAB
:1002F00091E04AE050E00E94EF048FE00E941B066C
:1003000062E370E00E94A307882777FD8095982F0D
:100310000E94B30508950F931F938EE060E00E9442
:100320009D068FE060E00E949D068BE061E00E94E8
:100330009D068EE00E948D0006EE11E0C80140E0AF
:1003400052EC61E070E00E945E02C80160E071E082
:100350000E940E051F910F9108951F920F920FB6E4
:100360000F9211242F933F934F935F936F937F933B
:100370008F939F93AF93BF93EF93FF93E0915C01B3
:10038000F0915D010995FF91EF91BF91AF919F9120
:100390008F917F916F915F914F913F912F910F902E
:1003A0000FBE0F901F90189508951F920F920FB6D1
:1003B0000F9211242F933F934F938F939F93EF931B
:1003C000FF938091C00082FD1DC04091C600209126
:1003D0009E0130919F012F5F3F4F2F7330708091AE
:1003E000A0019091A1012817390771F0E0919E01B9
:1003F000F0919F01E25AFE4F408330939F0120937A
:100400009E0102C08091C600FF91EF919F918F9154
:100410004F913F912F910F900FBE0F901F90189505
:10042000E091F201F091F301E05CFF4F8191919135
:1004300020813181821B930B8F739070892B11F077
:100440000E94D40108951F920F920FB60F921124AB
:100450002F933F938F939F93EF93FF932091E2010C
:100460003091E3018091E4019091E501281739076B
:1004700031F48091C1008F7D8093C10014C0E09160
:10048000E401F091E501EE55FE4F20818091E401F9
:100490009091E50101968F7390709093E5018093A0
:1004A000E4012093C600FF91EF919F918F913F91BE
:1004B0002F910F900FBE0F901F901895AF92BF9283
:1004C000DF92EF92FF920F931F93CF93DF93EC0194
:1004D0007A018B01DD24403081EE580780E0680707
:1004E00080E0780711F0DD24D39491E0A92EB12C9F
:1004F000EC89FD89DD2069F0C50108A002C0880FE4
:10050000991F0A94E2F7808360E079E08DE390E040
:1005100005C0108260E874E88EE190E0A8019701C0
:100520000E94B607215030404040504056954795B4
:100530003795279580E12030380720F0DD2011F035
:10054000DD24D6CFE889F9893083EA89FB892083C5
:1005500019A2EE89FF89408121E030E0C9010C8CAD
:1005600002C0880F991F0A94E2F7482B4083EE8956
:10057000FF894081C9010D8C02C0880F991F0A9420
:10058000E2F7482B4083EE89FF894081C9010E8C38
:1005900002C0880F991F0A94E2F7482B4083EE8926
:1005A000FF8980810F8C02C0220F331F0A94E2F76B
:1005B000209528232083DF91CF911F910F91FF90E9
:1005C000EF90DF90BF90AF900895DC011C96ED9105
:1005D000FC911D97E05CFF4F2191319180819181C9
:1005E000281B390B2F733070C9010895DC011C964C
:1005F000ED91FC911D97E05CFF4F20813181E0542B
:10060000F040DF01AE5BBF4F8D919C911197281791
:10061000390719F42FEF3FEF07C08D919C91E80F38
:10062000F91F8081282F30E0C9010895DC011C9654
:10063000ED91FC911D97E05CFF4F20813181E054EA
:10064000F040DF01AE5BBF4F8D919C911197281751
:10065000390719F42FEF3FEF10C08D919C9111973E
:10066000E80FF91F20818D919C91119701968F734E
:10067000907011969C938E9330E0C9010895DC012F
:1006800091968C919197882339F05496ED91FC9135
:100690005597808186FFF9CF91961C920895CF934C
:1006A000DF93EC01EE85FF85E05CFF4F2081318117
:1006B000E054F0402F5F3F4F2F733070DF01AE5B8F
:1006C000BF4F8D919C91119728173907D1F3E05CAA
:1006D000FF4F80819181E054F040E80FF91F608363
:1006E000EE85FF85E05CFF4F31832083EE89FF8933
:1006F000208181E090E00F8C02C0880F991F0A943E
:10070000E2F7282B208381E089A3EC89FD89808191
:100710008064808381E090E0DF91CF910895109212
:10072000E9011092E80188EE93E0A0E0B0E0809348
:10073000EA019093EB01A093EC01B093ED0188E402
:1007400091E09093E7018093E6018EE591E090932C
:10075000F3018093F20182EA91E09093F501809396
:10076000F40185EC90E09093F7018093F60184EC1E
:1007700090E09093F9018093F80180EC90E09093E1
:10078000FB018093FA0181EC90E09093FD0180934E
:10079000FC0182EC90E09093FF018093FE0186ECD7
:1007A00090E0909301028093000284E08093020223
:1007B00083E08093030287E08093040285E08093C6
:1007C000050281E0809306020895CF92DF92EF92B6
:1007D000FF920F931F93CF93DF937C016B018A01EC
:1007E000C0E0D0E00FC0D6016D916D01D701ED9151
:1007F000FC910190F081E02DC7010995C80FD91F28
:10080000015010400115110571F7CE01DF91CF9114
:100810001F910F91FF90EF90DF90CF900895EF928E
:10082000FF920F931F938C01DC01ED91FC910190DD
:10083000F081E02D6DE009957C01D801ED91FC91EE
:100840000190F081E02DC8016AE009959C012E0D10
:100850003F1DC9011F910F91FF90EF900895CF9315
:10086000DF93EC016115710519F420E030E00FC051
:10087000DB010D900020E9F71197A61BB70BE8816B
:10088000F9810280F381E02DAD0109959C01C90138
:10089000DF91CF9108954F925F927F928F929F92B6
:1008A000AF92BF92CF92DF92EF92FF920F931F937E
:1008B000DF93CF93CDB7DEB7A1970FB6F894DEBF25
:1008C0000FBECDBF2C01742ECB01223008F42AE0DC
:1008D00019A231E2C32ED12CCC0EDD1E822E99241A
:1008E000AA24BB24672D752FA50194010E94B60789
:1008F00079018A01C801B701A50194010E9484070A
:10090000472D461B0894C108D1084A3014F4405DB5
:1009100001C0495CF6014083E114F10401051105B1
:1009200021F07E2C5F2DC801DDCFC201B6010E94EF
:100930002F04A1960FB6F894DEBF0FBECDBFCF91A6
:10094000DF911F910F91FF90EF90DF90CF90BF90BC
:10095000AF909F908F907F905F904F900895CF922F
:10096000DF92EF92FF920F931F93CF93DF93EC01EF
:100970006A017B012115310541F4E881F98101907B
:10098000F081E02D642F09951FC02A303105D1F484
:1009900077FF17C0E881F9810190F081E02D6DE2C9
:1009A00009958C0144275527BA014C195D096E0938
:1009B0007F09CE012AE00E944B049801280F391FBD
:1009C00004C02AE00E944B049C01C901DF91CF9131
:1009D0001F910F91FF90EF90DF90CF900895CF92ED
:1009E000DF92EF92FF920F931F936C017B019A01AC
:1009F0000027F7FC0095102FB801A7010E94AF0453
:100A00008C01C6010E940F04080F191FC8011F9115
:100A10000F91FF90EF90DF90CF900895EF92FF92AB
:100A20000F931F937C010E942F048C01C7010E9429
:100A30000F04080F191FC8011F910F91FF90EF902D
:100A40000895CF93DF930E9478050E948B01C0E147
:100A5000D2E00E9423012097E1F30E941002F9CF17
:100A60001F920F920FB60F9211242F933F938F93E3
:100A70009F93AF93BF9380910C0290910D02A09130
:100A80000E02B0910F02309110020196A11DB11D0E
:100A9000232F2D5F2D3720F02D570196A11DB11D5D
:100AA0002093100280930C0290930D02A0930E02EB
:100AB000B0930F028091080290910902A0910A025E
:100AC000B0910B020196A11DB11D80930802909375
:100AD0000902A0930A02B0930B02BF91AF919F91BC
:100AE0008F913F912F910F900FBE0F901F901895EF
:100AF000789484B5826084BD84B5816084BD85B5F9
:100B0000826085BD85B5816085BDEEE6F0E08081BF
:100B100081608083E1E8F0E01082808182608083E0
:100B2000808181608083E0E8F0E080818160808363
:100B3000E1EBF0E0808184608083E0EBF0E0808195
:100B400081608083EAE7F0E0808184608083808137
:100B500082608083808181608083808180688083DF
:100B60001092C1000895EF92FF920F931F93CF93BD
:100B7000DF937B018C013FB7F8948091080290913C
:100B80000902A0910A02B0910B0226B5A89B05C0EC
:100B90002F3F19F00196A11DB11D3FBFBA2FA92FFC
:100BA000982F8827820F911DA11DB11D52E0880F3B
:100BB000991FAA1FBB1F5A95D1F7EC0130C00E94A4
:100BC00083073FB7F8948091080290910902A091A1
:100BD0000A02B0910B0226B5A89B05C02F3F19F061
:100BE0000196A11DB11D3FBFBA2FA92F982F8827AD
:100BF000820F911DA11DB11D32E0880F991FAA1F00
:100C0000BB1F3A95D1F78C1B9D0B885E9340B8F2C1
:100C10000894E108F10801091109C851DC4FE114F9
:100C2000F1040105110559F6DF91CF911F910F9144
:100C3000FF90EF900895982F8E3008F09E50977097
:100C4000809143018295880F880F807C892B809347
:100C50007C0080917A00806480937A0080917A0091
:100C600086FDFCCF2091780040917900942F80E0A0
:100C700030E0282B392BC90108951F93CF93DF93C0
:100C8000182FEB0161E00E949D06209709F44AC0ED
:100C9000CF3FD10509F449C0E12FF0E0E255FF4F05
:100CA00084918330C1F0843028F4813051F0823057
:100CB000B1F50CC0863019F1873049F1843079F5EF
:100CC00014C084B5806884BDC7BD33C084B580625C
:100CD00084BDC8BD2EC08091800080688093800054
:100CE000D0938900C093880024C0809180008062E6
:100CF00080938000D0938B00C0938A001AC08091AB
:100D0000B00080688093B000C093B30012C080919F
:100D1000B00080628093B000C093B4000AC0C038B5
:100D2000D1051CF4812F60E002C0812F61E00E9498
:100D3000DC06DF91CF911F910895CF93DF93482F69
:100D400050E0CA0186569F4FFC0134914A575F4FCD
:100D5000FA018491882369F190E0880F991FFC01C2
:100D6000E859FF4FA591B491FC01EE58FF4FC59192
:100D7000D491662351F42FB7F8948C91932F9095CA
:100D800089238C93888189230BC0623061F42FB74B
:100D9000F8948C91932F909589238C938881832B41
:100DA00088832FBF06C09FB7F8948C91832B8C93B8
:100DB0009FBFDF91CF910895482F50E0CA0182551F
:100DC0009F4FFC012491CA0186569F4FFC019491CC
:100DD0004A575F4FFA013491332309F440C022236C
:100DE00051F1233071F0243028F42130A1F0223069
:100DF00011F514C02630B1F02730C1F02430D9F4F9
:100E000004C0809180008F7703C0809180008F7D27
:100E10008093800010C084B58F7702C084B58F7D29
:100E200084BD09C08091B0008F7703C08091B0006D
:100E30008F7D8093B000E32FF0E0EE0FFF1FEE58A0
:100E4000FF4FA591B4912FB7F894662321F48C91AC
:100E50009095892302C08C91892B8C932FBF089584
:100E6000682F70E0CB0182559F4FFC012491CB018C
:100E700086569F4FFC0144916A577F4FFB01949126
:100E8000992319F420E030E03CC0222351F12330B3
:100E900071F0243028F42130A1F0223011F514C073
:100EA0002630B1F02730C1F02430D9F404C080914D
:100EB00080008F7703C0809180008F7D80938000B9
:100EC00010C084B58F7702C084B58F7D84BD09C002
:100ED0008091B0008F7703C08091B0008F7D8093A8
:100EE000B000892F90E0880F991F84589F4FFC0114
:100EF000A591B4918C9120E030E0842311F021E0A1
:100F000030E0C90108950895629FD001739FF001F8
:100F1000829FE00DF11D649FE00DF11D929FF00D89
:100F2000839FF00D749FF00D659FF00D9927729FC0
:100F3000B00DE11DF91F639FB00DE11DF91FBD014B
:100F4000CF011124089597FB092E07260AD077FDBB
:100F500004D02ED006D000201AF4709561957F4FF2
:100F60000895F6F7909581959F4F0895A1E21A2E66
:100F7000AA1BBB1BFD010DC0AA1FBB1FEE1FFF1F3D
:100F8000A217B307E407F50720F0A21BB30BE40B8D
:100F9000F50B661F771F881F991F1A9469F76095D4
:100FA0007095809590959B01AC01BD01CF0108958E
:100FB000AA1BBB1B51E107C0AA1FBB1FA617B7077F
:100FC00010F0A61BB70B881F991F5A95A9F780959B
:100FD0009095BC01CD010895EE0FFF1F0590F4918F
:080FE000E02D0994F894FFCF05
:100FE8006869202D2072656D6F7665207468697355
:100FF8002053657269616C2E7878782829206C698D
:101008006E657320666F722074686520646D782041
:101018007374756666206F6E2070696E20302F318C
:1010280000FFFF01000000004F03E503E50216037F
:04103800F6023F037A
:00000001FF
