:100000000C9462000C948A000C948A000C94EC000E
:100010000C94FB000C940A010C948A000C948A0046
:100020000C948A000C948A000C948A000C948A0028
:100030000C948A000C948A000C948A000C948A0018
:100040000C94F7030C948A000C945F010C94AD019E
:100050000C948A000C948A000C948A000C948A00F8
:100060000C948A000C948A000000000024002700F1
:100070002A0000000000250028002B0000000000DE
:1000800023002600290004040404040404040202DA
:100090000202020203030303030301020408102007
:1000A0004080010204081020010204081020000012
:1000B0000007000201000003040600000000000029
:1000C0000000190311241FBECFEFD8E0DEBFCDBF63
:1000D00011E0A0E0B1E0E0EDFBE002C005900D9280
:1000E000AE31B107D9F711E0AEE1B1E001C01D9228
:1000F000A23DB107E1F710E0C4ECD0E004C02297C4
:10010000FE010E94E205C23CD107C9F70E94E80344
:100110000C94E6050C940000CF93DF93482F8830B1
:1001200028F4EDE6F0E0CDE6D0E00EC08E3028F405
:10013000EBE6F0E0CBE6D0E007C0863108F447C03C
:10014000E0E0F0E0C0E0D0E05081483068F481E0C9
:1001500090E0A0E0B0E0042E04C0880F991FAA1F11
:10016000BB1F0A94D2F714C0242F30E04E3018F48D
:100170002850304002C02E50304081E090E0A0E096
:10018000B0E004C0880F991FAA1FBB1F2A95D2F7A1
:10019000852B88839BB3483010F484E005C04E3033
:1001A00010F481E001C082E0892B8BBB9091680044
:1001B000483010F484E005C04E3010F481E001C0F6
:1001C00082E0892B80936800DF91CF910895ECE65F
:1001D000F0E0CCE6D0E0B8CF1F920F920FB60F92AE
:1001E00011248F9381E480931E018F910F900FBE95
:1001F0000F901F9018951F920F920FB60F92112417
:100200008F9382E480931E018F910F900FBE0F9009
:100210001F9018951F920F920FB60F9211248F9373
:1002200083E480931E018F910F900FBE0F901F905B
:10023000189580911E01882359F08EE00E94430595
:10024000892B31F487EA91E060E071E00E94D503E8
:1002500087EA91E065E071E00E94D5038FE00E949B
:10026000E20462E370E00E949705882777FD80959D
:10027000982F0E947A0408950F931F938EE060E0F8
:100280000E9404058FE060E00E9404058BE061E0BD
:100290000E9404058EE00E948C0007EA11E0C8016C
:1002A00040E052EC61E070E00E94E801C8016AE0C1
:1002B00071E00E94D5031F910F91089508951F9238
:1002C0000F920FB60F9211242F933F934F938F935A
:1002D0009F93EF93FF938091C00082FD1DC04091DA
:1002E000C60020915F01309160012F5F3F4F2F7357
:1002F000307080916101909162012817390771F087
:10030000E0915F01F0916001E15EFE4F4083309328
:10031000600120935F0102C08091C600FF91EF91C0
:100320009F918F914F913F912F910F900FBE0F9002
:100330001F901895E091B301F091B401E05CFF4F7C
:100340008191919120813181821B930B8F739070E9
:10035000892B11F00E945E0108951F920F920FB633
:100360000F9211242F933F938F939F93EF93FF93BB
:100370002091A3013091A4018091A5019091A60143
:100380002817390731F48091C1008F7D8093C10017
:1003900014C0E091A501F091A601ED59FE4F208116
:1003A0008091A5019091A60101968F739070909312
:1003B000A6018093A5012093C600FF91EF919F9124
:1003C0008F913F912F910F900FBE0F901F90189516
:1003D000AF92BF92DF92EF92FF920F931F93CF9352
:1003E000DF93EC017A018B01DD24403081EE580768
:1003F00080E0680780E0780711F0DD24D39491E075
:10040000A92EB12CEC89FD89DD2069F0C50108A079
:1004100002C0880F991F0A94E2F7808360E079E0B8
:100420008DE390E005C0108260E874E88EE190E012
:10043000A80197010E94AA05215030404040504039
:10044000569547953795279580E12030380720F05D
:10045000DD2011F0DD24D6CFE889F9893083EA89DF
:10046000FB89208319A2EE89FF89408121E030E0D9
:10047000C9010C8C02C0880F991F0A94E2F7482B1F
:100480004083EE89FF894081C9010D8C02C0880F2D
:10049000991F0A94E2F7482B4083EE89FF89408137
:1004A000C9010E8C02C0880F991F0A94E2F7482BED
:1004B0004083EE89FF8980810F8C02C0220F331F99
:1004C0000A94E2F7209528232083DF91CF911F9192
:1004D0000F91FF90EF90DF90BF90AF900895DC01F7
:1004E0001C96ED91FC911D97E05CFF4F219131919D
:1004F00080819181281B390B2F733070C9010895B9
:10050000DC011C96ED91FC911D97E05CFF4F208172
:100510003181E054F040DF01AE5BBF4F8D919C9183
:1005200011972817390719F42FEF3FEF07C08D9166
:100530009C91E80FF91F8081282F30E0C9010895B0
:10054000DC011C96ED91FC911D97E05CFF4F208132
:100550003181E054F040DF01AE5BBF4F8D919C9143
:1005600011972817390719F42FEF3FEF10C08D911D
:100570009C911197E80FF91F20818D919C91119703
:1005800001968F73907011969C938E9330E0C90101
:100590000895DC0191968C919197882339F05496B7
:1005A000ED91FC915597808186FFF9CF91961C9231
:1005B0000895CF93DF93EC01EE85FF85E05CFF4F5C
:1005C00020813181E054F0402F5F3F4F2F73307016
:1005D000DF01AE5BBF4F8D919C91119728173907B2
:1005E000D1F3E05CFF4F80819181E054F040E80F4F
:1005F000F91F6083EE85FF85E05CFF4F3183208328
:10060000EE89FF89208181E090E00F8C02C0880F85
:10061000991F0A94E2F7282B208381E089A3EC89B3
:10062000FD8980818064808381E090E0DF91CF91BB
:1006300008951092AA011092A90188EE93E0A0E01B
:10064000B0E08093AB019093AC01A093AD01B09367
:10065000AE0182E191E09093A8018093A7018FE120
:1006600091E09093B4018093B30183E691E090937D
:10067000B6018093B50185EC90E09093B80180932A
:10068000B70184EC90E09093BA018093B90180ECBB
:1006900090E09093BC018093BB0181EC90E090933B
:1006A000BE018093BD0182EC90E09093C0018093E5
:1006B000BF0186EC90E09093C2018093C10184E079
:1006C0008093C30183E08093C40187E08093C501D8
:1006D00085E08093C60181E08093C7010895CF92A1
:1006E000DF92EF92FF920F931F93CF93DF937C01E2
:1006F0006B018A01C0E0D0E00FC0D6016D916D01A1
:10070000D701ED91FC910190F081E02DC701099591
:10071000C80FD91F015010400115110571F7CE0106
:10072000DF91CF911F910F91FF90EF90DF90CF90CD
:100730000895EF92FF920F931F938C01DC01ED91CE
:10074000FC910190F081E02D6DE009957C01D801CC
:10075000ED91FC910190F081E02DC8016AE00995CE
:100760009C012E0D3F1DC9011F910F91FF90EF902D
:100770000895CF93DF93EC016115710519F420E022
:1007800030E00FC0DB010D900020E9F71197A61BA8
:10079000B70BE881F9810280F381E02DAD01099565
:1007A0009C01C901DF91CF910895EF92FF920F93C1
:1007B0001F937C010E94B9038C01C7010E94990319
:1007C000080F191FC8011F910F91FF90EF90089516
:1007D000CF93DF930E943F040E943C01CAE9D1E01D
:1007E0000E9419012097E1F30E949A01F9CF1F920C
:1007F0000F920FB60F9211242F933F938F939F93D5
:10080000AF93BF938091CD019091CE01A091CF0184
:10081000B091D0013091D1010196A11DB11D232FBE
:100820002D5F2D3720F02D570196A11DB11D20936E
:10083000D1018093CD019093CE01A093CF01B093CD
:10084000D0018091C9019091CA01A091CB01B091D2
:10085000CC010196A11DB11D8093C9019093CA01DD
:10086000A093CB01B093CC01BF91AF919F918F9199
:100870003F912F910F900FBE0F901F901895789475
:1008800084B5826084BD84B5816084BD85B5826095
:1008900085BD85B5816085BDEEE6F0E08081816033
:1008A0008083E1E8F0E01082808182608083808133
:1008B00081608083E0E8F0E0808181608083E1EB0B
:1008C000F0E0808184608083E0EBF0E080818160F3
:1008D0008083EAE7F0E080818460808380818260A9
:1008E0008083808181608083808180688083109292
:1008F000C1000895EF92FF920F931F93CF93DF9360
:100900007B018C013FB7F8948091C9019091CA0195
:10091000A091CB01B091CC0126B5A89B05C02F3F7B
:1009200019F00196A11DB11D3FBFBA2FA92F982F15
:100930008827820F911DA11DB11D52E0880F991FBC
:10094000AA1FBB1F5A95D1F7EC0130C00E94960533
:100950003FB7F8948091C9019091CA01A091CB0151
:10096000B091CC0126B5A89B05C02F3F19F0019688
:10097000A11DB11D3FBFBA2FA92F982F8827820F25
:10098000911DA11DB11D32E0880F991FAA1FBB1F29
:100990003A95D1F78C1B9D0B885E9340B8F2089472
:1009A000E108F10801091109C851DC4FE114F10413
:1009B0000105110559F6DF91CF911F910F91FF901D
:1009C000EF900895982F8E3008F09E509770809188
:1009D0000D018295880F880F807C892B80937C0085
:1009E00080917A00806480937A0080917A0086FDFD
:1009F000FCCF2091780040917900942F80E030E086
:100A0000282B392BC9010895CF93DF93482F50E04D
:100A1000CA0186569F4FFC0134914A575F4FFA0135
:100A20008491882369F190E0880F991FFC01E859AF
:100A3000FF4FA591B491FC01EE58FF4FC591D491A1
:100A4000662351F42FB7F8948C91932F90958923B6
:100A50008C93888189230BC0623061F42FB7F8949E
:100A60008C91932F909589238C938881832B8883F5
:100A70002FBF06C09FB7F8948C91832B8C939FBF98
:100A8000DF91CF910895682F70E0CB0182559F4F81
:100A9000FC012491CB0186569F4FFC0144916A577B
:100AA0007F4FFB019491992319F420E030E03CC082
:100AB000222351F1233071F0243028F42130A1F0A9
:100AC000223011F514C02630B1F02730C1F02430A7
:100AD000D9F404C0809180008F7703C0809180009A
:100AE0008F7D8093800010C084B58F7702C084B55D
:100AF0008F7D84BD09C08091B0008F7703C0809145
:100B0000B0008F7D8093B000892F90E0880F991FEF
:100B100084589F4FFC01A591B4918C9120E030E066
:100B2000842311F021E030E0C9010895089597FB76
:100B3000092E07260AD077FD04D02ED006D000203B
:100B40001AF4709561957F4F0895F6F79095819509
:100B50009F4F0895A1E21A2EAA1BBB1BFD010DC0D9
:100B6000AA1FBB1FEE1FFF1FA217B307E407F5075D
:100B700020F0A21BB30BE40BF50B661F771F881F39
:100B8000991F1A9469F760957095809590959B01CF
:100B9000AC01BD01CF010895AA1BBB1B51E107C0E9
:100BA000AA1FBB1FA617B70710F0A61BB70B881FFD
:100BB000991F5A95A9F780959095BC01CD0108958C
:100BC000EE0FFF1F0590F491E02D0994F894FFCFEC
:100BD0006A6F706F006A6F6F6F00686900010000D4
:0E0BE0000000D9026F036F02A0028002C9025A
:00000001FF
